{
  "contractName": "Actionjoin",
  "abi": [
    {
      "constant": true,
      "inputs": [],
      "name": "historyWinNum",
      "outputs": [
        {
          "name": "",
          "type": "uint256"
        }
      ],
      "payable": false,
      "stateMutability": "view",
      "type": "function"
    },
    {
      "constant": true,
      "inputs": [
        {
          "name": "",
          "type": "uint256"
        }
      ],
      "name": "joinPeoples",
      "outputs": [
        {
          "name": "",
          "type": "address"
        }
      ],
      "payable": false,
      "stateMutability": "view",
      "type": "function"
    },
    {
      "constant": true,
      "inputs": [
        {
          "name": "",
          "type": "uint256"
        }
      ],
      "name": "winMoney",
      "outputs": [
        {
          "name": "",
          "type": "uint256"
        }
      ],
      "payable": false,
      "stateMutability": "view",
      "type": "function"
    },
    {
      "constant": true,
      "inputs": [],
      "name": "currentActionTime",
      "outputs": [
        {
          "name": "",
          "type": "uint256"
        }
      ],
      "payable": false,
      "stateMutability": "view",
      "type": "function"
    },
    {
      "constant": true,
      "inputs": [
        {
          "name": "",
          "type": "uint256"
        }
      ],
      "name": "winnerPeoples",
      "outputs": [
        {
          "name": "",
          "type": "uint256"
        }
      ],
      "payable": false,
      "stateMutability": "view",
      "type": "function"
    },
    {
      "constant": true,
      "inputs": [],
      "name": "lastJoinNum",
      "outputs": [
        {
          "name": "",
          "type": "uint256"
        }
      ],
      "payable": false,
      "stateMutability": "view",
      "type": "function"
    },
    {
      "constant": true,
      "inputs": [
        {
          "name": "",
          "type": "uint256"
        }
      ],
      "name": "joinTimeStamp",
      "outputs": [
        {
          "name": "",
          "type": "uint256"
        }
      ],
      "payable": false,
      "stateMutability": "view",
      "type": "function"
    },
    {
      "constant": true,
      "inputs": [],
      "name": "historyJoinNum",
      "outputs": [
        {
          "name": "",
          "type": "uint256"
        }
      ],
      "payable": false,
      "stateMutability": "view",
      "type": "function"
    },
    {
      "constant": true,
      "inputs": [],
      "name": "actionSetAddr",
      "outputs": [
        {
          "name": "",
          "type": "address"
        }
      ],
      "payable": false,
      "stateMutability": "view",
      "type": "function"
    },
    {
      "constant": false,
      "inputs": [
        {
          "name": "startTime",
          "type": "uint256"
        }
      ],
      "name": "getActionStartTime",
      "outputs": [],
      "payable": false,
      "stateMutability": "nonpayable",
      "type": "function"
    },
    {
      "constant": false,
      "inputs": [],
      "name": "joinActivityDraw",
      "outputs": [],
      "payable": true,
      "stateMutability": "payable",
      "type": "function"
    }
  ],
  "bytecode": "0x60806040526000603260006101000a81548160ff021916908360ff1602179055506000603355600060345560006039556000603a556000603b556000603c5530603d60006101000a81548173ffffffffffffffffffffffffffffffffffffffff021916908373ffffffffffffffffffffffffffffffffffffffff16021790555034801561008b57600080fd5b50610b958061009b6000396000f3006080604052600436106100af576000357c0100000000000000000000000000000000000000000000000000000000900463ffffffff168063107f339c146100b45780632b63ae95146100df57806355c9a2c5146100e957806366541d98146101565780636cf2cedf14610197578063711200ad146101c257806378c5c99a14610203578063822af73f1461022e578063b29a798d1461026f578063b95d095d1461029a578063dd1b8703146102c7575b600080fd5b3480156100c057600080fd5b506100c961031e565b6040518082815260200191505060405180910390f35b6100e7610324565b005b3480156100f557600080fd5b50610114600480360381019080803590602001909291905050506106d7565b604051808273ffffffffffffffffffffffffffffffffffffffff1673ffffffffffffffffffffffffffffffffffffffff16815260200191505060405180910390f35b34801561016257600080fd5b506101816004803603810190808035906020019092919050505061070a565b6040518082815260200191505060405180910390f35b3480156101a357600080fd5b506101ac610722565b6040518082815260200191505060405180910390f35b3480156101ce57600080fd5b506101ed60048036038101908080359060200190929190505050610728565b6040518082815260200191505060405180910390f35b34801561020f57600080fd5b50610218610740565b6040518082815260200191505060405180910390f35b34801561023a57600080fd5b5061025960048036038101908080359060200190929190505050610746565b6040518082815260200191505060405180910390f35b34801561027b57600080fd5b5061028461075e565b6040518082815260200191505060405180910390f35b3480156102a657600080fd5b506102c560048036038101908080359060200190929190505050610764565b005b3480156102d357600080fd5b506102dc610883565b604051808273ffffffffffffffffffffffffffffffffffffffff1673ffffffffffffffffffffffffffffffffffffffff16815260200191505060405180910390f35b60395481565b3373ffffffffffffffffffffffffffffffffffffffff16603d60009054906101000a900473ffffffffffffffffffffffffffffffffffffffff1673ffffffffffffffffffffffffffffffffffffffff16141515156103ea576040517f08c379a00000000000000000000000000000000000000000000000000000000081526004018080602001828103825260148152602001807f6a6f696e657220697320746865206f776e65722100000000000000000000000081525060200191505060405180910390fd5b42603c54111515610463576040517f08c379a00000000000000000000000000000000000000000000000000000000081526004018080602001828103825260168152602001807f616374696f6e206973206e6f742073746172746564210000000000000000000081525060200191505060405180910390fd5b6714d1120d7b16000034101515156104e3576040517f08c379a000000000000000000000000000000000000000000000000000000000815260040180806020018281038252601d8152602001807f616d6f756e74206973206e6f7420656e6f75676820312e35206574682100000081525060200191505060405180910390fd5b60328060009054906101000a900460ff1660ff1610151561056c576040517f08c379a00000000000000000000000000000000000000000000000000000000081526004018080602001828103825260108152602001807f686173206265656e206d6178206e756d0000000000000000000000000000000081525060200191505060405180910390fd5b336000603260009054906101000a900460ff1660ff1660328110151561058e57fe5b0160006101000a81548173ffffffffffffffffffffffffffffffffffffffff021916908373ffffffffffffffffffffffffffffffffffffffff1602179055503360356000603b600081548092919060010191905055815260200190815260200160002060006101000a81548173ffffffffffffffffffffffffffffffffffffffff021916908373ffffffffffffffffffffffffffffffffffffffff1602179055504260366000603b5481526020019081526020016000208190555034603454016034819055506032600081819054906101000a900460ff168092919060010191906101000a81548160ff021916908360ff16021790555050603260009054906101000a900460ff1660ff16603b5403603a8190555060328060009054906101000a900460ff1660ff1614806106c55750603c544210155b156106d5576106d26108a9565b50505b565b60356020528060005260406000206000915054906101000a900473ffffffffffffffffffffffffffffffffffffffff1681565b60386020528060005260406000206000915090505481565b603c5481565b60376020528060005260406000206000915090505481565b603b5481565b60366020528060005260406000206000915090505481565b603a5481565b3373ffffffffffffffffffffffffffffffffffffffff16603d60009054906101000a900473ffffffffffffffffffffffffffffffffffffffff1673ffffffffffffffffffffffffffffffffffffffff161415156107c057610880565b4281111515610837576040517f08c379a00000000000000000000000000000000000000000000000000000000081526004018080602001828103825260198152602001807f737461727474696d65206973206e6f7420636f7272656374210000000000000081525060200191505060405180910390fd5b80603c8190555033603d60006101000a81548173ffffffffffffffffffffffffffffffffffffffff021916908373ffffffffffffffffffffffffffffffffffffffff1602179055505b50565b603d60009054906101000a900473ffffffffffffffffffffffffffffffffffffffff1681565b60008060008060006108b9610a23565b6032811015156108c557fe5b0160009054906101000a900473ffffffffffffffffffffffffffffffffffffffff169150603a5460016108f6610a23565b0101603760006039600081548092919060010191905055815260200190815260200160002081905550603454603860006039548152602001908152602001600020819055506000610945610a23565b60328110151561095157fe5b0160009054906101000a900473ffffffffffffffffffffffffffffffffffffffff1673ffffffffffffffffffffffffffffffffffffffff166108fc600a60036034540281151561099d57fe5b049081150290604051600060405180830381858888f193505050501580156109c9573d6000803e3d6000fd5b50600a6003603454028115156109db57fe5b0490506000806109eb9190610b31565b60006034819055506000603260006101000a81548160ff021916908360ff1602179055506000603c8190555081819350935050509091565b600080603260009054906101000a900460ff1660ff164233603354604051602001808481526020018373ffffffffffffffffffffffffffffffffffffffff1673ffffffffffffffffffffffffffffffffffffffff166c0100000000000000000000000002815260140182815260200193505050506040516020818303038152906040526040518082805190602001908083835b602083101515610adb5780518252602082019150602081019050602083039250610ab6565b6001836020036101000a038019825116818451168082178552505050505050905001915050604051809103902060019004811515610b1557fe5b0690506033600081548092919060010191905055508091505090565b508060320190610b419190610b44565b50565b610b6691905b80821115610b62576000816000905550600101610b4a565b5090565b905600a165627a7a72305820c741431cfd83fc55550f366805c4b66786fbfdd4e4322321265e3e70caf658100029",
  "source": "pragma solidity ^0.4.24;\r\ncontract Actionjoin {\r\n    // 抽奖参数\r\n    // 抽检的开始时间 和 结束时间 （以秒为单位的出块时间）\r\n    // 受益人 累计奖金额\r\n    address[50] joinActivity;   //参与活动的地址组初始化\r\n    uint8 count=0;                      //已经参与的个数\r\n    uint nonce=0;\r\n    //uint activityEndTime=0;             //本期活动的结束时间  备用\r\n    uint amoutAll=0;                    //本期活动当前累计总金额\r\n    \r\n    mapping(uint => address) public joinPeoples;        //记录所有的参与者\r\n    //mapping(uint => uint) public joinBlock;           //记录所有参与者的块\r\n    mapping(uint => uint) public joinTimeStamp;         //记录所有参与者的时间戳\r\n    mapping(uint => uint) public winnerPeoples;         //记录所有的获奖者\r\n    mapping(uint => uint) public winMoney;              //记录所有获奖的金额\r\n    uint public historyWinNum=0;                        //历史获奖人数\r\n    uint public historyJoinNum=0;                       //记录上一期已经参加过的人数\r\n    uint public lastJoinNum=0;                          //当前已经参加的全部人数\r\n    uint public currentActionTime=0;                    //设置当前活动的结束时间\r\n    \r\n    \r\n    //uint public lastJoinBlockNum=0;\r\n    \r\n    \r\n    address public actionSetAddr=address(this);\r\n    \r\n    \r\n    //设置开启者地址\r\n    /*\r\n    function setActionStarter() public{\r\n        actionSetAddr=address(this);\r\n    }\r\n    */\r\n\r\n    //活动时间开启\r\n    function getActionStartTime(uint startTime) public{\r\n        if(actionSetAddr!=msg.sender){\r\n            return ;\r\n        }\r\n        require(startTime>now,\"starttime is not correct!\");\r\n        \r\n        currentActionTime=startTime;\r\n        actionSetAddr=msg.sender;\r\n    } \r\n    \r\n    function joinActivityDraw() public payable{\r\n        //过滤开奖账号\r\n        require(actionSetAddr!=msg.sender,\"joiner is the owner!\");\r\n        //判断活动时间是否有效\r\n        require(currentActionTime>now,\"action is not started!\");\r\n        //require(now<currentActionTime,\"action is not ended!\");\r\n        //大于1个eth转账 才可以参与\r\n        require(msg.value>=1500000000000000000,\"amount is not enough 1.5 eth!\");\r\n        //限制参与数为50个\r\n        require(count<50,\"has been max num\");\r\n        //判断活动是不是开始 \r\n        //require(activityEndTime==0,\"activity is not started!\");\r\n        //判断转账是否发生在互动期限期间\r\n        //require(block.timestamp<activityEndTime,\"activity is allready done!\");\r\n        //actionSetAddr.send(msg.value);\r\n        \r\n        joinActivity[count]=msg.sender;\r\n        joinPeoples[lastJoinNum++]=msg.sender;   //lastJoinNum当前参与的所有人数\r\n        //joinBlock[lastJoinNum]=block.number;\r\n        //lastJoinBlockNum=block.number;\r\n        joinTimeStamp[lastJoinNum]=now;  \r\n        amoutAll=amoutAll+msg.value;\r\n        count++;\r\n        historyJoinNum=lastJoinNum-count;       //historyJoinNum已经参加过抽奖的人数\r\n        if(count==50 || now>=currentActionTime){\r\n            produceWinnerAndAmount();\r\n        }\r\n        \r\n    }\r\n    //随机计算获奖者\r\n    function produceWinnerAndAmount() private returns(address,uint) {\r\n        address winner=joinActivity[winnerNum()];\r\n        /*\r\n        for(uint i=historyJoinNum;i<lastJoinNum;i++){\r\n            if(joinPeoples[i]==winner){\r\n                winnerPeoples[historyWinNum++]=i;\r\n                winMoney[historyWinNum]=amoutAll;\r\n                break;\r\n            }\r\n        }\r\n        */\r\n        //登记获奖人\r\n        winnerPeoples[historyWinNum++]=winnerNum()+1+historyJoinNum;\r\n        //记录本期获奖金额\r\n        winMoney[historyWinNum]=amoutAll;\r\n        joinActivity[winnerNum()].transfer(amoutAll*3/10);\r\n        uint amountMoney=amoutAll*3/10;\r\n        delete joinActivity;\r\n        amoutAll=0;\r\n        count = 0;\r\n        currentActionTime=0;\r\n        return (winner,amountMoney);\r\n    }\r\n    //计算获奖编号\r\n    function winnerNum() private returns(uint) {\r\n        uint winner = uint(keccak256(abi.encodePacked(now, msg.sender, nonce))) % count;\r\n        nonce++;\r\n        return winner;\r\n    }\r\n\r\n}",
  "sourcePath": "C:\\phpStudy\\PHPTutorial\\WWW\\gongxiang\\thefirstproject\\nodejseth\\contracts\\Actionjoin.sol",
  "compiler": {
    "name": "solc",
    "version": "0.4.24+commit.e67f0147.Emscripten.clang"
  },
  "schemaVersion": "2.0.1",
  "updatedAt": "2018-12-12T08:18:30.689Z"
}